{"abi":[{"type":"constructor","inputs":[{"name":"_tokenABC","type":"address","internalType":"address"},{"name":"_tokenXYZ","type":"address","internalType":"address"}],"stateMutability":"nonpayable"},{"type":"function","name":"buyTokensABC","inputs":[{"name":"amount","type":"uint256","internalType":"uint256"}],"outputs":[],"stateMutability":"payable"},{"type":"function","name":"buyTokensXYZ","inputs":[{"name":"amount","type":"uint256","internalType":"uint256"}],"outputs":[],"stateMutability":"payable"},{"type":"function","name":"fees","inputs":[],"outputs":[{"name":"","type":"uint256","internalType":"uint256"}],"stateMutability":"view"},{"type":"function","name":"getTokenBalances","inputs":[{"name":"user","type":"address","internalType":"address"}],"outputs":[{"name":"balanceABC","type":"uint256","internalType":"uint256"},{"name":"balanceXYZ","type":"uint256","internalType":"uint256"}],"stateMutability":"view"},{"type":"function","name":"ratioAX","inputs":[],"outputs":[{"name":"","type":"uint256","internalType":"uint256"}],"stateMutability":"view"},{"type":"function","name":"setFees","inputs":[{"name":"_fees","type":"uint256","internalType":"uint256"}],"outputs":[],"stateMutability":"nonpayable"},{"type":"function","name":"setRatio","inputs":[{"name":"_ratio","type":"uint256","internalType":"uint256"}],"outputs":[],"stateMutability":"nonpayable"},{"type":"function","name":"swapTKA","inputs":[{"name":"amountTKA","type":"uint256","internalType":"uint256"}],"outputs":[],"stateMutability":"nonpayable"},{"type":"function","name":"swapTKX","inputs":[{"name":"amountTKX","type":"uint256","internalType":"uint256"}],"outputs":[],"stateMutability":"nonpayable"},{"type":"function","name":"tokenABC","inputs":[],"outputs":[{"name":"","type":"address","internalType":"contract TokenABC"}],"stateMutability":"view"},{"type":"function","name":"tokenXYZ","inputs":[],"outputs":[{"name":"","type":"address","internalType":"contract TokenXYZ"}],"stateMutability":"view"},{"type":"event","name":"FeesChanged","inputs":[{"name":"newFees","type":"uint256","indexed":false,"internalType":"uint256"}],"anonymous":false},{"type":"event","name":"RatioChanged","inputs":[{"name":"newRatio","type":"uint256","indexed":false,"internalType":"uint256"}],"anonymous":false},{"type":"event","name":"TokensSwapped","inputs":[{"name":"user","type":"address","indexed":true,"internalType":"address"},{"name":"amountIn","type":"uint256","indexed":false,"internalType":"uint256"},{"name":"amountOut","type":"uint256","indexed":false,"internalType":"uint256"},{"name":"tokenIn","type":"string","indexed":false,"internalType":"string"},{"name":"tokenOut","type":"string","indexed":false,"internalType":"string"}],"anonymous":false}],"bytecode":{"object":"0x608060405234801561001057600080fd5b5060405161139038038061139083398101604081905261002f91610087565b600080546001600160a01b03199081163317909155600380546001600160a01b03948516908316179055600480549290931691161790556100ba565b80516001600160a01b038116811461008257600080fd5b919050565b6000806040838503121561009a57600080fd5b6100a38361006b565b91506100b16020840161006b565b90509250929050565b6112c7806100c96000396000f3fe6080604052600436106100bc5760003560e01c806394e6d1a211610074578063ad20f4701161004e578063ad20f47014610216578063b2237ba314610229578063f62b77d71461024957600080fd5b806394e6d1a2146101b35780639af1d35a146101d3578063aaea2382146101e957600080fd5b80635f70662d116100a55780635f70662d1461010c5780637226d2c31461015e578063764f3aa81461017e57600080fd5b80633d18678e146100c15780634171e6e5146100e3575b600080fd5b3480156100cd57600080fd5b506100e16100dc366004611082565b61025c565b005b3480156100ef57600080fd5b506100f960015481565b6040519081526020015b60405180910390f35b34801561011857600080fd5b506004546101399073ffffffffffffffffffffffffffffffffffffffff1681565b60405173ffffffffffffffffffffffffffffffffffffffff9091168152602001610103565b34801561016a57600080fd5b506100e1610179366004611082565b610354565b34801561018a57600080fd5b5061019e61019936600461109b565b61086a565b60408051928352602083019190915201610103565b3480156101bf57600080fd5b506100e16101ce366004611082565b6109a1565b3480156101df57600080fd5b506100f960025481565b3480156101f557600080fd5b506003546101399073ffffffffffffffffffffffffffffffffffffffff1681565b6100e1610224366004611082565b610eb5565b34801561023557600080fd5b506100e1610244366004611082565b610f3f565b6100e1610257366004611082565b61102b565b60005473ffffffffffffffffffffffffffffffffffffffff1633146102c85760405162461bcd60e51b815260206004820152601860248201527f4f6e6c792061646d696e2063616e2063616c6c2074686973000000000000000060448201526064015b60405180910390fd5b606481106103185760405162461bcd60e51b815260206004820152601b60248201527f46656573206d757374206265206c657373207468616e2031303025000000000060448201526064016102bf565b60028190556040518181527f3dda580d2b9d92da338ef46ec718e7b1dd0a2c505e3df4aa8d40360192a0f822906020015b60405180910390a150565b6003546040517fdd62ed3e000000000000000000000000000000000000000000000000000000008152336004820152306024820152829173ffffffffffffffffffffffffffffffffffffffff169063dd62ed3e90604401602060405180830381865afa1580156103c8573d6000803e3d6000fd5b505050506040513d601f19601f820116820180604052508101906103ec91906110d8565b101561043a5760405162461bcd60e51b815260206004820152601f60248201527f496e73756666696369656e7420546f6b656e41424320616c6c6f77616e63650060448201526064016102bf565b6003546040517f70a08231000000000000000000000000000000000000000000000000000000008152336004820152829173ffffffffffffffffffffffffffffffffffffffff16906370a0823190602401602060405180830381865afa1580156104a8573d6000803e3d6000fd5b505050506040513d601f19601f820116820180604052508101906104cc91906110d8565b101561051a5760405162461bcd60e51b815260206004820152601d60248201527f496e73756666696369656e7420546f6b656e4142432062616c616e636500000060448201526064016102bf565b600060646002548361052c9190611120565b610536919061113d565b9050600081600154846105499190611120565b6105539190611178565b9050600081116105cb5760405162461bcd60e51b815260206004820152602960248201527f45786368616e676520616d6f756e74206d75737420626520677265617465722060448201527f7468616e207a65726f000000000000000000000000000000000000000000000060648201526084016102bf565b600480546040517f70a082310000000000000000000000000000000000000000000000000000000081523092810192909252829173ffffffffffffffffffffffffffffffffffffffff909116906370a0823190602401602060405180830381865afa15801561063e573d6000803e3d6000fd5b505050506040513d601f19601f8201168201806040525081019061066291906110d8565b10156106d65760405162461bcd60e51b815260206004820152602960248201527f496e73756666696369656e7420546f6b656e58595a2062616c616e636520696e60448201527f20636f6e7472616374000000000000000000000000000000000000000000000060648201526084016102bf565b6003546040517f23b872dd0000000000000000000000000000000000000000000000000000000081523360048201523060248201526044810185905273ffffffffffffffffffffffffffffffffffffffff909116906323b872dd906064016020604051808303816000875af1158015610753573d6000803e3d6000fd5b505050506040513d601f19601f82011682018060405250810190610777919061118b565b50600480546040517fa9059cbb00000000000000000000000000000000000000000000000000000000815233928101929092526024820183905273ffffffffffffffffffffffffffffffffffffffff169063a9059cbb906044016020604051808303816000875af11580156107f0573d6000803e3d6000fd5b505050506040513d601f19601f82011682018060405250810190610814919061118b565b503373ffffffffffffffffffffffffffffffffffffffff167f10e63db56101ee7554fa2cc02fe603b473d8691c1c31ea24e6cdad344d1c74ae848360405161085d9291906111ad565b60405180910390a2505050565b6003546040517f70a0823100000000000000000000000000000000000000000000000000000000815273ffffffffffffffffffffffffffffffffffffffff838116600483015260009283929116906370a0823190602401602060405180830381865afa1580156108de573d6000803e3d6000fd5b505050506040513d601f19601f8201168201806040525081019061090291906110d8565b600480546040517f70a0823100000000000000000000000000000000000000000000000000000000815273ffffffffffffffffffffffffffffffffffffffff8781169382019390935292945016906370a0823190602401602060405180830381865afa158015610976573d6000803e3d6000fd5b505050506040513d601f19601f8201168201806040525081019061099a91906110d8565b9050915091565b600480546040517fdd62ed3e0000000000000000000000000000000000000000000000000000000081523392810192909252306024830152829173ffffffffffffffffffffffffffffffffffffffff9091169063dd62ed3e90604401602060405180830381865afa158015610a1a573d6000803e3d6000fd5b505050506040513d601f19601f82011682018060405250810190610a3e91906110d8565b1015610a8c5760405162461bcd60e51b815260206004820152601f60248201527f496e73756666696369656e7420546f6b656e58595a20616c6c6f77616e63650060448201526064016102bf565b600480546040517f70a082310000000000000000000000000000000000000000000000000000000081523392810192909252829173ffffffffffffffffffffffffffffffffffffffff909116906370a0823190602401602060405180830381865afa158015610aff573d6000803e3d6000fd5b505050506040513d601f19601f82011682018060405250810190610b2391906110d8565b1015610b715760405162461bcd60e51b815260206004820152601d60248201527f496e73756666696369656e7420546f6b656e58595a2062616c616e636500000060448201526064016102bf565b6000606460025483610b839190611120565b610b8d919061113d565b600154610b9a908461113d565b610ba49190611178565b905060008111610c1c5760405162461bcd60e51b815260206004820152602960248201527f45786368616e676520616d6f756e74206d75737420626520677265617465722060448201527f7468616e207a65726f000000000000000000000000000000000000000000000060648201526084016102bf565b6003546040517f70a08231000000000000000000000000000000000000000000000000000000008152306004820152829173ffffffffffffffffffffffffffffffffffffffff16906370a0823190602401602060405180830381865afa158015610c8a573d6000803e3d6000fd5b505050506040513d601f19601f82011682018060405250810190610cae91906110d8565b1015610d225760405162461bcd60e51b815260206004820152602960248201527f496e73756666696369656e7420546f6b656e4142432062616c616e636520696e60448201527f20636f6e7472616374000000000000000000000000000000000000000000000060648201526084016102bf565b600480546040517f23b872dd00000000000000000000000000000000000000000000000000000000815233928101929092523060248301526044820184905273ffffffffffffffffffffffffffffffffffffffff16906323b872dd906064016020604051808303816000875af1158015610da0573d6000803e3d6000fd5b505050506040513d601f19601f82011682018060405250810190610dc4919061118b565b506003546040517fa9059cbb0000000000000000000000000000000000000000000000000000000081523360048201526024810183905273ffffffffffffffffffffffffffffffffffffffff9091169063a9059cbb906044016020604051808303816000875af1158015610e3c573d6000803e3d6000fd5b505050506040513d601f19601f82011682018060405250810190610e60919061118b565b503373ffffffffffffffffffffffffffffffffffffffff167f10e63db56101ee7554fa2cc02fe603b473d8691c1c31ea24e6cdad344d1c74ae8383604051610ea9929190611236565b60405180910390a25050565b6003546040517f3610724e0000000000000000000000000000000000000000000000000000000081526004810183905273ffffffffffffffffffffffffffffffffffffffff90911690633610724e9034906024015b6000604051808303818588803b158015610f2357600080fd5b505af1158015610f37573d6000803e3d6000fd5b505050505050565b60005473ffffffffffffffffffffffffffffffffffffffff163314610fa65760405162461bcd60e51b815260206004820152601860248201527f4f6e6c792061646d696e2063616e2063616c6c2074686973000000000000000060448201526064016102bf565b60008111610ff65760405162461bcd60e51b815260206004820152601f60248201527f526174696f206d7573742062652067726561746572207468616e207a65726f0060448201526064016102bf565b60018190556040518181527fe200219383a2dbe79fad4e1549a81b6057429299f33583641c5fdddcdc0b379790602001610349565b600480546040517f3610724e00000000000000000000000000000000000000000000000000000000815291820183905273ffffffffffffffffffffffffffffffffffffffff1690633610724e903490602401610f0a565b60006020828403121561109457600080fd5b5035919050565b6000602082840312156110ad57600080fd5b813573ffffffffffffffffffffffffffffffffffffffff811681146110d157600080fd5b9392505050565b6000602082840312156110ea57600080fd5b5051919050565b7f4e487b7100000000000000000000000000000000000000000000000000000000600052601160045260246000fd5b8082028115828204841417611137576111376110f1565b92915050565b600082611173577f4e487b7100000000000000000000000000000000000000000000000000000000600052601260045260246000fd5b500490565b81810381811115611137576111376110f1565b60006020828403121561119d57600080fd5b815180151581146110d157600080fd5b8281528160208201526080604082015260006111f660808301600381527f4142430000000000000000000000000000000000000000000000000000000000602082015260400190565b8281036060840152600381527f58595a00000000000000000000000000000000000000000000000000000000006020820152604081015b95945050505050565b82815281602082015260806040820152600061127f60808301600381527f58595a0000000000000000000000000000000000000000000000000000000000602082015260400190565b8281036060840152600381527f414243000000000000000000000000000000000000000000000000000000000060208201526040810161122d56fea164736f6c6343000817000a","linkReferences":{}},"methodIdentifiers":{"buyTokensABC(uint256)":"ad20f470","buyTokensXYZ(uint256)":"f62b77d7","fees()":"9af1d35a","getTokenBalances(address)":"764f3aa8","ratioAX()":"4171e6e5","setFees(uint256)":"3d18678e","setRatio(uint256)":"b2237ba3","swapTKA(uint256)":"7226d2c3","swapTKX(uint256)":"94e6d1a2","tokenABC()":"aaea2382","tokenXYZ()":"5f70662d"},"id":27}