{"abi":[{"type":"constructor","inputs":[],"stateMutability":"nonpayable"},{"type":"function","name":"Vote","inputs":[{"name":"_candidateId","type":"uint256","internalType":"uint256"},{"name":"_voterAddress","type":"address","internalType":"address"}],"outputs":[],"stateMutability":"nonpayable"},{"type":"function","name":"addCandidate","inputs":[{"name":"_name","type":"string","internalType":"string"},{"name":"_proposal","type":"string","internalType":"string"}],"outputs":[],"stateMutability":"nonpayable"},{"type":"function","name":"addVoter","inputs":[{"name":"_voterAddress","type":"address","internalType":"address"},{"name":"_name","type":"string","internalType":"string"}],"outputs":[],"stateMutability":"nonpayable"},{"type":"function","name":"admin","inputs":[],"outputs":[{"name":"","type":"address","internalType":"address"}],"stateMutability":"view"},{"type":"function","name":"candidateIdCounter","inputs":[],"outputs":[{"name":"","type":"uint256","internalType":"uint256"}],"stateMutability":"view"},{"type":"function","name":"candidates","inputs":[{"name":"","type":"uint256","internalType":"uint256"}],"outputs":[{"name":"name","type":"string","internalType":"string"},{"name":"proposal","type":"string","internalType":"string"},{"name":"voteCount","type":"uint256","internalType":"uint256"}],"stateMutability":"view"},{"type":"function","name":"delegateVotingRights","inputs":[{"name":"_delegate","type":"address","internalType":"address"},{"name":"_voterAddress","type":"address","internalType":"address"}],"outputs":[],"stateMutability":"nonpayable"},{"type":"function","name":"displayCandidateDetails","inputs":[{"name":"_candidateId","type":"uint256","internalType":"uint256"}],"outputs":[{"name":"","type":"uint256","internalType":"uint256"},{"name":"","type":"string","internalType":"string"},{"name":"","type":"string","internalType":"string"}],"stateMutability":"view"},{"type":"function","name":"electionState","inputs":[],"outputs":[{"name":"","type":"uint8","internalType":"enum Voting.ElectionState"}],"stateMutability":"view"},{"type":"function","name":"endElection","inputs":[],"outputs":[],"stateMutability":"nonpayable"},{"type":"function","name":"showElectionResults","inputs":[{"name":"_candidateId","type":"uint256","internalType":"uint256"}],"outputs":[{"name":"","type":"uint256","internalType":"uint256"},{"name":"","type":"string","internalType":"string"},{"name":"","type":"uint256","internalType":"uint256"}],"stateMutability":"view"},{"type":"function","name":"showWinner","inputs":[],"outputs":[{"name":"","type":"string","internalType":"string"},{"name":"","type":"string","internalType":"string"},{"name":"","type":"uint256","internalType":"uint256"}],"stateMutability":"view"},{"type":"function","name":"startElection","inputs":[],"outputs":[],"stateMutability":"nonpayable"},{"type":"function","name":"viewVoterProfile","inputs":[{"name":"_voterAddress","type":"address","internalType":"address"}],"outputs":[{"name":"","type":"string","internalType":"string"},{"name":"","type":"uint256","internalType":"uint256"},{"name":"","type":"bool","internalType":"bool"}],"stateMutability":"view"},{"type":"function","name":"voteCounter","inputs":[],"outputs":[{"name":"","type":"uint256","internalType":"uint256"}],"stateMutability":"view"},{"type":"function","name":"voterIdCounter","inputs":[],"outputs":[{"name":"","type":"uint256","internalType":"uint256"}],"stateMutability":"view"},{"type":"function","name":"voters","inputs":[{"name":"","type":"address","internalType":"address"}],"outputs":[{"name":"name","type":"string","internalType":"string"},{"name":"hasVoted","type":"bool","internalType":"bool"},{"name":"voteDelegated","type":"bool","internalType":"bool"},{"name":"delegate","type":"address","internalType":"address"},{"name":"votedFor","type":"uint256","internalType":"uint256"}],"stateMutability":"view"}],"bytecode":{"object":"0x608060405234801561001057600080fd5b5060008054336001600160a01b03199091161781556004805460ff1916905560018190556002819055600355611c5c8061004b6000396000f3fe608060405234801561001057600080fd5b506004361061011b5760003560e01c80639373bad2116100b2578063b7e0326411610081578063d9e95a9811610066578063d9e95a9814610249578063ea25e5aa1461025c578063f851a4401461027e57600080fd5b8063b7e0326414610238578063b9a269b01461024057600080fd5b80639373bad2146101d6578063a3ec138d146101e9578063a48292ce1461020d578063a779e2701461022f57600080fd5b80634ad7b863116100ee5780634ad7b8631461018d578063599f36d1146101af57806359f78468146101c657806362d73eb8146101ce57600080fd5b806310a412bf146101205780632280043d1461013557806326541b56146101585780633477ee2e1461016b575b600080fd5b61013361012e366004611640565b6102c3565b005b6004546101429060ff1681565b60405161014f919061169b565b60405180910390f35b6101336101663660046117b6565b61055a565b61017e61017936600461181a565b610651565b60405161014f93929190611897565b6101a061019b36600461181a565b610783565b60405161014f939291906118cd565b6101b860035481565b60405190815260200161014f565b610133610a28565b610133610aea565b6101336101e43660046118f6565b610ba8565b6101fc6101f7366004611920565b610d3c565b60405161014f959493929190611942565b61022061021b36600461181a565b610e12565b60405161014f9392919061198f565b6101b860025481565b61017e610fc0565b6101b860015481565b6101336102573660046119c4565b611282565b61026f61026a366004611920565b61143c565b60405161014f93929190611a08565b60005461029e9073ffffffffffffffffffffffffffffffffffffffff1681565b60405173ffffffffffffffffffffffffffffffffffffffff909116815260200161014f565b600160045460ff1660028111156102dc576102dc61166c565b1461032e5760405162461bcd60e51b815260206004820152601860248201527f456c656374696f6e206973206e6f74206f6e676f696e672e000000000000000060448201526064015b60405180910390fd5b3360009081526005602052604090206001015460ff16156103915760405162461bcd60e51b815260206004820152601760248201527f596f75206861766520616c726561647920766f7465642e0000000000000000006044820152606401610325565b60005473ffffffffffffffffffffffffffffffffffffffff1633036103f85760405162461bcd60e51b815260206004820152601160248201527f41646d696e2063616e6e6f7420766f74650000000000000000000000000000006044820152606401610325565b60025482106104495760405162461bcd60e51b815260206004820152601560248201527f496e76616c69642063616e6469646174652049442e00000000000000000000006044820152606401610325565b73ffffffffffffffffffffffffffffffffffffffff8116600090815260056020526040902060010154610100900460ff16156104c75760405162461bcd60e51b815260206004820152601d60248201527f596f7520686176652064656c65676174656420796f757220766f74652e0000006044820152606401610325565b73ffffffffffffffffffffffffffffffffffffffff81166000908152600560209081526040808320600181810180547fffffffffffffffffffffffffffffffffffffffffffffffffffffffffffffff001690911790556002908101869055858452600690925282200180549161053c83611a32565b90915550506003805490600061055183611a32565b91905055505050565b60005473ffffffffffffffffffffffffffffffffffffffff1633146105e75760405162461bcd60e51b815260206004820152602760248201527f4f6e6c79207468652061646d696e2063616e20706572666f726d20746869732060448201527f616374696f6e2e000000000000000000000000000000000000000000000000006064820152608401610325565b60408051606081018252838152602080820184905260008284018190526002548152600690915291909120815181906106209082611b35565b50602082015160018201906106359082611b35565b5060409190910151600291820155805490600061055183611a32565b60066020526000908152604090208054819061066c90611a91565b80601f016020809104026020016040519081016040528092919081815260200182805461069890611a91565b80156106e55780601f106106ba576101008083540402835291602001916106e5565b820191906000526020600020905b8154815290600101906020018083116106c857829003601f168201915b5050505050908060010180546106fa90611a91565b80601f016020809104026020016040519081016040528092919081815260200182805461072690611a91565b80156107735780601f1061074857610100808354040283529160200191610773565b820191906000526020600020905b81548152906001019060200180831161075657829003601f168201915b5050505050908060020154905083565b60008054606090829073ffffffffffffffffffffffffffffffffffffffff1633146108165760405162461bcd60e51b815260206004820152602760248201527f4f6e6c79207468652061646d696e2063616e20706572666f726d20746869732060448201527f616374696f6e2e000000000000000000000000000000000000000000000000006064820152608401610325565b600260045460ff16600281111561082f5761082f61166c565b1461087c5760405162461bcd60e51b815260206004820152601b60248201527f456c656374696f6e20686173206e6f7420656e646564207965742e00000000006044820152606401610325565b60025484106108cd5760405162461bcd60e51b815260206004820152601560248201527f496e76616c69642063616e6469646174652049442e00000000000000000000006044820152606401610325565b6000848152600660205260408082208151606081019092528054829082906108f490611a91565b80601f016020809104026020016040519081016040528092919081815260200182805461092090611a91565b801561096d5780601f106109425761010080835404028352916020019161096d565b820191906000526020600020905b81548152906001019060200180831161095057829003601f168201915b5050505050815260200160018201805461098690611a91565b80601f01602080910402602001604051908101604052809291908181526020018280546109b290611a91565b80156109ff5780601f106109d4576101008083540402835291602001916109ff565b820191906000526020600020905b8154815290600101906020018083116109e257829003601f168201915b505050918352505060029190910154602090910152805160409091015195969095945092505050565b60005473ffffffffffffffffffffffffffffffffffffffff163314610ab55760405162461bcd60e51b815260206004820152602760248201527f4f6e6c79207468652061646d696e2063616e20706572666f726d20746869732060448201527f616374696f6e2e000000000000000000000000000000000000000000000000006064820152608401610325565b60048054600291907fffffffffffffffffffffffffffffffffffffffffffffffffffffffffffffff00166001835b0217905550565b60005473ffffffffffffffffffffffffffffffffffffffff163314610b775760405162461bcd60e51b815260206004820152602760248201527f4f6e6c79207468652061646d696e2063616e20706572666f726d20746869732060448201527f616374696f6e2e000000000000000000000000000000000000000000000000006064820152608401610325565b60048054600191907fffffffffffffffffffffffffffffffffffffffffffffffffffffffffffffff00168280610ae3565b600160045460ff166002811115610bc157610bc161166c565b14610c0e5760405162461bcd60e51b815260206004820152601860248201527f456c656374696f6e206973206e6f74206f6e676f696e672e00000000000000006044820152606401610325565b3360009081526005602052604090206001015460ff1615610c715760405162461bcd60e51b815260206004820152601760248201527f596f75206861766520616c726561647920766f7465642e0000000000000000006044820152606401610325565b60005473ffffffffffffffffffffffffffffffffffffffff163303610cd85760405162461bcd60e51b815260206004820152601160248201527f41646d696e2063616e6e6f7420766f74650000000000000000000000000000006044820152606401610325565b73ffffffffffffffffffffffffffffffffffffffff908116600090815260056020526040902060010180549290911662010000027fffffffffffffffffffff000000000000000000000000000000000000000000ff90921691909117610100179055565b600560205260009081526040902080548190610d5790611a91565b80601f0160208091040260200160405190810160405280929190818152602001828054610d8390611a91565b8015610dd05780601f10610da557610100808354040283529160200191610dd0565b820191906000526020600020905b815481529060010190602001808311610db357829003601f168201915b505050506001830154600290930154919260ff80821693610100830490911692506201000090910473ffffffffffffffffffffffffffffffffffffffff169085565b60006060806002548410610e685760405162461bcd60e51b815260206004820152601560248201527f496e76616c69642063616e6469646174652049442e00000000000000000000006044820152606401610325565b600084815260066020526040808220815160608101909252805482908290610e8f90611a91565b80601f0160208091040260200160405190810160405280929190818152602001828054610ebb90611a91565b8015610f085780601f10610edd57610100808354040283529160200191610f08565b820191906000526020600020905b815481529060010190602001808311610eeb57829003601f168201915b50505050508152602001600182018054610f2190611a91565b80601f0160208091040260200160405190810160405280929190818152602001828054610f4d90611a91565b8015610f9a5780601f10610f6f57610100808354040283529160200191610f9a565b820191906000526020600020905b815481529060010190602001808311610f7d57829003601f168201915b505050918352505060029190910154602091820152815191015195969095945092505050565b60008054606091829173ffffffffffffffffffffffffffffffffffffffff1633146110535760405162461bcd60e51b815260206004820152602760248201527f4f6e6c79207468652061646d696e2063616e20706572666f726d20746869732060448201527f616374696f6e2e000000000000000000000000000000000000000000000000006064820152608401610325565b600260045460ff16600281111561106c5761106c61166c565b146110b95760405162461bcd60e51b815260206004820152601b60248201527f456c656374696f6e20686173206e6f7420656e646564207965742e00000000006044820152606401610325565b6110dd60405180606001604052806060815260200160608152602001600081525090565b600080805b60025481101561126d57600081815260066020526040902060020154831015611265576000818152600660205260409081902081516060810190925280548290829061112d90611a91565b80601f016020809104026020016040519081016040528092919081815260200182805461115990611a91565b80156111a65780601f1061117b576101008083540402835291602001916111a6565b820191906000526020600020905b81548152906001019060200180831161118957829003601f168201915b505050505081526020016001820180546111bf90611a91565b80601f01602080910402602001604051908101604052809291908181526020018280546111eb90611a91565b80156112385780601f1061120d57610100808354040283529160200191611238565b820191906000526020600020905b81548152906001019060200180831161121b57829003601f168201915b50505091835250506002918201546020918201526000848152600690915260409020015490945092509050805b6001016110e2565b50508151602090920151919591945092509050565b60005473ffffffffffffffffffffffffffffffffffffffff16331461130f5760405162461bcd60e51b815260206004820152602760248201527f4f6e6c79207468652061646d696e2063616e20706572666f726d20746869732060448201527f616374696f6e2e000000000000000000000000000000000000000000000000006064820152608401610325565b6040805160a08101825282815260006020808301829052828401829052606083018290526080830182905273ffffffffffffffffffffffffffffffffffffffff861682526005905291909120815181906113699082611b35565b506020820151600180830180546040860151606087015173ffffffffffffffffffffffffffffffffffffffff1662010000027fffffffffffffffffffff0000000000000000000000000000000000000000ffff911515610100027fffffffffffffffffffffffffffffffffffffffffffffffffffffffffffff00ff961515969096167fffffffffffffffffffffffffffffffffffffffffffffffffffffffffffff000090931692909217949094179390931692909217909155608090920151600290910155805490600061055183611a32565b6000805460609190819073ffffffffffffffffffffffffffffffffffffffff1633148061147e57503373ffffffffffffffffffffffffffffffffffffffff8516145b6114f05760405162461bcd60e51b815260206004820152603060248201527f596f7520646f206e6f742068617665207065726d697373696f6e20746f20766960448201527f657720746869732070726f66696c652e000000000000000000000000000000006064820152608401610325565b73ffffffffffffffffffffffffffffffffffffffff8416600090815260056020526040808220815160a0810190925280548290829061152e90611a91565b80601f016020809104026020016040519081016040528092919081815260200182805461155a90611a91565b80156115a75780601f1061157c576101008083540402835291602001916115a7565b820191906000526020600020905b81548152906001019060200180831161158a57829003601f168201915b5050509183525050600182015460ff8082161515602084015261010082041615156040808401919091526201000090910473ffffffffffffffffffffffffffffffffffffffff16606083015260029092015460809182015282519083015192909101519097919650945092505050565b803573ffffffffffffffffffffffffffffffffffffffff8116811461163b57600080fd5b919050565b6000806040838503121561165357600080fd5b8235915061166360208401611617565b90509250929050565b7f4e487b7100000000000000000000000000000000000000000000000000000000600052602160045260246000fd5b60208101600383106116d6577f4e487b7100000000000000000000000000000000000000000000000000000000600052602160045260246000fd5b91905290565b7f4e487b7100000000000000000000000000000000000000000000000000000000600052604160045260246000fd5b600082601f83011261171c57600080fd5b813567ffffffffffffffff80821115611737576117376116dc565b604051601f83017fffffffffffffffffffffffffffffffffffffffffffffffffffffffffffffffe0908116603f0116810190828211818310171561177d5761177d6116dc565b8160405283815286602085880101111561179657600080fd5b836020870160208301376000602085830101528094505050505092915050565b600080604083850312156117c957600080fd5b823567ffffffffffffffff808211156117e157600080fd5b6117ed8683870161170b565b9350602085013591508082111561180357600080fd5b506118108582860161170b565b9150509250929050565b60006020828403121561182c57600080fd5b5035919050565b6000815180845260005b818110156118595760208185018101518683018201520161183d565b5060006020828601015260207fffffffffffffffffffffffffffffffffffffffffffffffffffffffffffffffe0601f83011685010191505092915050565b6060815260006118aa6060830186611833565b82810360208401526118bc8186611833565b915050826040830152949350505050565b8381526060602082015260006118e66060830185611833565b9050826040830152949350505050565b6000806040838503121561190957600080fd5b61191283611617565b915061166360208401611617565b60006020828403121561193257600080fd5b61193b82611617565b9392505050565b60a08152600061195560a0830188611833565b951515602083015250921515604084015273ffffffffffffffffffffffffffffffffffffffff919091166060830152608090910152919050565b8381526060602082015260006119a86060830185611833565b82810360408401526119ba8185611833565b9695505050505050565b600080604083850312156119d757600080fd5b6119e083611617565b9150602083013567ffffffffffffffff8111156119fc57600080fd5b6118108582860161170b565b606081526000611a1b6060830186611833565b602083019490945250901515604090910152919050565b60007fffffffffffffffffffffffffffffffffffffffffffffffffffffffffffffffff8203611a8a577f4e487b7100000000000000000000000000000000000000000000000000000000600052601160045260246000fd5b5060010190565b600181811c90821680611aa557607f821691505b602082108103611ade577f4e487b7100000000000000000000000000000000000000000000000000000000600052602260045260246000fd5b50919050565b601f821115611b30576000816000526020600020601f850160051c81016020861015611b0d5750805b601f850160051c820191505b81811015611b2c57828155600101611b19565b5050505b505050565b815167ffffffffffffffff811115611b4f57611b4f6116dc565b611b6381611b5d8454611a91565b84611ae4565b602080601f831160018114611bb65760008415611b805750858301515b7fffffffffffffffffffffffffffffffffffffffffffffffffffffffffffffffff600386901b1c1916600185901b178555611b2c565b6000858152602081207fffffffffffffffffffffffffffffffffffffffffffffffffffffffffffffffe08616915b82811015611c0357888601518255948401946001909101908401611be4565b5085821015611c3f57878501517fffffffffffffffffffffffffffffffffffffffffffffffffffffffffffffffff600388901b60f8161c191681555b5050505050600190811b0190555056fea164736f6c6343000817000a","linkReferences":{}},"methodIdentifiers":{"Vote(uint256,address)":"10a412bf","addCandidate(string,string)":"26541b56","addVoter(address,string)":"d9e95a98","admin()":"f851a440","candidateIdCounter()":"a779e270","candidates(uint256)":"3477ee2e","delegateVotingRights(address,address)":"9373bad2","displayCandidateDetails(uint256)":"a48292ce","electionState()":"2280043d","endElection()":"59f78468","showElectionResults(uint256)":"4ad7b863","showWinner()":"b7e03264","startElection()":"62d73eb8","viewVoterProfile(address)":"ea25e5aa","voteCounter()":"599f36d1","voterIdCounter()":"b9a269b0","voters(address)":"a3ec138d"},"id":21}