{"abi":[{"type":"constructor","inputs":[{"name":"initialSupply","type":"uint256","internalType":"uint256"},{"name":"_tokenPrice","type":"uint256","internalType":"uint256"}],"stateMutability":"nonpayable"},{"type":"function","name":"allowance","inputs":[{"name":"owner","type":"address","internalType":"address"},{"name":"spender","type":"address","internalType":"address"}],"outputs":[{"name":"","type":"uint256","internalType":"uint256"}],"stateMutability":"view"},{"type":"function","name":"approve","inputs":[{"name":"spender","type":"address","internalType":"address"},{"name":"value","type":"uint256","internalType":"uint256"}],"outputs":[{"name":"","type":"bool","internalType":"bool"}],"stateMutability":"nonpayable"},{"type":"function","name":"approveMax","inputs":[{"name":"spender","type":"address","internalType":"address"}],"outputs":[],"stateMutability":"nonpayable"},{"type":"function","name":"balanceOf","inputs":[{"name":"account","type":"address","internalType":"address"}],"outputs":[{"name":"","type":"uint256","internalType":"uint256"}],"stateMutability":"view"},{"type":"function","name":"buyTokens","inputs":[{"name":"numberOfTokens","type":"uint256","internalType":"uint256"}],"outputs":[],"stateMutability":"payable"},{"type":"function","name":"decimals","inputs":[],"outputs":[{"name":"","type":"uint8","internalType":"uint8"}],"stateMutability":"view"},{"type":"function","name":"name","inputs":[],"outputs":[{"name":"","type":"string","internalType":"string"}],"stateMutability":"view"},{"type":"function","name":"symbol","inputs":[],"outputs":[{"name":"","type":"string","internalType":"string"}],"stateMutability":"view"},{"type":"function","name":"tokenPrice","inputs":[],"outputs":[{"name":"","type":"uint256","internalType":"uint256"}],"stateMutability":"view"},{"type":"function","name":"tokensSold","inputs":[],"outputs":[{"name":"","type":"uint256","internalType":"uint256"}],"stateMutability":"view"},{"type":"function","name":"totalSupply","inputs":[],"outputs":[{"name":"","type":"uint256","internalType":"uint256"}],"stateMutability":"view"},{"type":"function","name":"transfer","inputs":[{"name":"to","type":"address","internalType":"address"},{"name":"value","type":"uint256","internalType":"uint256"}],"outputs":[{"name":"","type":"bool","internalType":"bool"}],"stateMutability":"nonpayable"},{"type":"function","name":"transferFrom","inputs":[{"name":"from","type":"address","internalType":"address"},{"name":"to","type":"address","internalType":"address"},{"name":"value","type":"uint256","internalType":"uint256"}],"outputs":[{"name":"","type":"bool","internalType":"bool"}],"stateMutability":"nonpayable"},{"type":"event","name":"Approval","inputs":[{"name":"owner","type":"address","indexed":true,"internalType":"address"},{"name":"spender","type":"address","indexed":true,"internalType":"address"},{"name":"value","type":"uint256","indexed":false,"internalType":"uint256"}],"anonymous":false},{"type":"event","name":"Transfer","inputs":[{"name":"from","type":"address","indexed":true,"internalType":"address"},{"name":"to","type":"address","indexed":true,"internalType":"address"},{"name":"value","type":"uint256","indexed":false,"internalType":"uint256"}],"anonymous":false},{"type":"error","name":"ERC20InsufficientAllowance","inputs":[{"name":"spender","type":"address","internalType":"address"},{"name":"allowance","type":"uint256","internalType":"uint256"},{"name":"needed","type":"uint256","internalType":"uint256"}]},{"type":"error","name":"ERC20InsufficientBalance","inputs":[{"name":"sender","type":"address","internalType":"address"},{"name":"balance","type":"uint256","internalType":"uint256"},{"name":"needed","type":"uint256","internalType":"uint256"}]},{"type":"error","name":"ERC20InvalidApprover","inputs":[{"name":"approver","type":"address","internalType":"address"}]},{"type":"error","name":"ERC20InvalidReceiver","inputs":[{"name":"receiver","type":"address","internalType":"address"}]},{"type":"error","name":"ERC20InvalidSender","inputs":[{"name":"sender","type":"address","internalType":"address"}]},{"type":"error","name":"ERC20InvalidSpender","inputs":[{"name":"spender","type":"address","internalType":"address"}]}],"bytecode":{"object":"0x60806040523480156200001157600080fd5b50604051620011fe380380620011fe83398101604081905262000034916200023b565b60405180604001604052806008815260200167546f6b656e41424360c01b8152506040518060400160405280600381526020016241424360e81b815250816003908162000082919062000307565b50600462000091828262000307565b5050506005819055620000be30620000ac6012600a620004e8565b620000b8908562000500565b620000c6565b505062000530565b6001600160a01b038216620000f65760405163ec442f0560e01b8152600060048201526024015b60405180910390fd5b620001046000838362000108565b5050565b6001600160a01b038316620001375780600260008282546200012b91906200051a565b90915550620001ab9050565b6001600160a01b038316600090815260208190526040902054818110156200018c5760405163391434e360e21b81526001600160a01b03851660048201526024810182905260448101839052606401620000ed565b6001600160a01b03841660009081526020819052604090209082900390555b6001600160a01b038216620001c957600280548290039055620001e8565b6001600160a01b03821660009081526020819052604090208054820190555b816001600160a01b0316836001600160a01b03167fddf252ad1be2c89b69c2b068fc378daa952ba7f163c4a11628f55a4df523b3ef836040516200022e91815260200190565b60405180910390a3505050565b600080604083850312156200024f57600080fd5b505080516020909101519092909150565b634e487b7160e01b600052604160045260246000fd5b600181811c908216806200028b57607f821691505b602082108103620002ac57634e487b7160e01b600052602260045260246000fd5b50919050565b601f82111562000302576000816000526020600020601f850160051c81016020861015620002dd5750805b601f850160051c820191505b81811015620002fe57828155600101620002e9565b5050505b505050565b81516001600160401b0381111562000323576200032362000260565b6200033b8162000334845462000276565b84620002b2565b602080601f8311600181146200037357600084156200035a5750858301515b600019600386901b1c1916600185901b178555620002fe565b600085815260208120601f198616915b82811015620003a45788860151825594840194600190910190840162000383565b5085821015620003c35787850151600019600388901b60f8161c191681555b5050505050600190811b01905550565b634e487b7160e01b600052601160045260246000fd5b600181815b808511156200042a5781600019048211156200040e576200040e620003d3565b808516156200041c57918102915b93841c9390800290620003ee565b509250929050565b6000826200044357506001620004e2565b816200045257506000620004e2565b81600181146200046b5760028114620004765762000496565b6001915050620004e2565b60ff8411156200048a576200048a620003d3565b50506001821b620004e2565b5060208310610133831016604e8410600b8410161715620004bb575081810a620004e2565b620004c78383620003e9565b8060001904821115620004de57620004de620003d3565b0290505b92915050565b6000620004f960ff84168362000432565b9392505050565b8082028115828204841417620004e257620004e2620003d3565b80820180821115620004e257620004e2620003d3565b610cbe80620005406000396000f3fe6080604052600436106100d25760003560e01c8063518ab2a81161007f5780637ff9b596116100595780637ff9b5961461021b57806395d89b4114610231578063a9059cbb14610246578063dd62ed3e1461026657600080fd5b8063518ab2a8146101a2578063571ac8b0146101b857806370a08231146101d857600080fd5b806323b872dd116100b057806323b872dd14610151578063313ce567146101715780633610724e1461018d57600080fd5b806306fdde03146100d7578063095ea7b31461010257806318160ddd14610132575b600080fd5b3480156100e357600080fd5b506100ec6102b9565b6040516100f99190610a25565b60405180910390f35b34801561010e57600080fd5b5061012261011d366004610abb565b61034b565b60405190151581526020016100f9565b34801561013e57600080fd5b506002545b6040519081526020016100f9565b34801561015d57600080fd5b5061012261016c366004610ae5565b610365565b34801561017d57600080fd5b50604051601281526020016100f9565b6101a061019b366004610b21565b610389565b005b3480156101ae57600080fd5b5061014360065481565b3480156101c457600080fd5b506101a06101d3366004610b3a565b6104ca565b3480156101e457600080fd5b506101436101f3366004610b3a565b73ffffffffffffffffffffffffffffffffffffffff1660009081526020819052604090205490565b34801561022757600080fd5b5061014360055481565b34801561023d57600080fd5b506100ec6104fa565b34801561025257600080fd5b50610122610261366004610abb565b610509565b34801561027257600080fd5b50610143610281366004610b5c565b73ffffffffffffffffffffffffffffffffffffffff918216600090815260016020908152604080832093909416825291909152205490565b6060600380546102c890610b8f565b80601f01602080910402602001604051908101604052809291908181526020018280546102f490610b8f565b80156103415780601f1061031657610100808354040283529160200191610341565b820191906000526020600020905b81548152906001019060200180831161032457829003601f168201915b5050505050905090565b600033610359818585610517565b60019150505b92915050565b600033610373858285610529565b61037e8585856105fd565b506001949350505050565b610395816005546106a8565b3410156103a157600080fd5b6040517f70a08231000000000000000000000000000000000000000000000000000000008152306004820181905282916370a0823190602401602060405180830381865afa1580156103f7573d6000803e3d6000fd5b505050506040513d601f19601f8201168201806040525081019061041b9190610be2565b101561042657600080fd5b6040517fa9059cbb00000000000000000000000000000000000000000000000000000000815233600482015260248101829052309063a9059cbb906044016020604051808303816000875af1158015610483573d6000803e3d6000fd5b505050506040513d601f19601f820116820180604052508101906104a79190610bfb565b6104b057600080fd5b80600660008282546104c29190610c4c565b909155505050565b7fffffffffffffffffffffffffffffffffffffffffffffffffffffffffffffffff6104f6338383610517565b5050565b6060600480546102c890610b8f565b6000336103598185856105fd565b6105248383836001610732565b505050565b73ffffffffffffffffffffffffffffffffffffffff8381166000908152600160209081526040808320938616835292905220547fffffffffffffffffffffffffffffffffffffffffffffffffffffffffffffffff81146105f757818110156105e8576040517ffb8f41b200000000000000000000000000000000000000000000000000000000815273ffffffffffffffffffffffffffffffffffffffff8416600482015260248101829052604481018390526064015b60405180910390fd5b6105f784848484036000610732565b50505050565b73ffffffffffffffffffffffffffffffffffffffff831661064d576040517f96c6fd1e000000000000000000000000000000000000000000000000000000008152600060048201526024016105df565b73ffffffffffffffffffffffffffffffffffffffff821661069d576040517fec442f05000000000000000000000000000000000000000000000000000000008152600060048201526024016105df565b61052483838361087a565b60008115806106cc575082826106be8183610c5f565b92506106ca9083610c76565b145b61035f576040517f08c379a000000000000000000000000000000000000000000000000000000000815260206004820152601460248201527f64732d6d6174682d6d756c2d6f766572666c6f7700000000000000000000000060448201526064016105df565b73ffffffffffffffffffffffffffffffffffffffff8416610782576040517fe602df05000000000000000000000000000000000000000000000000000000008152600060048201526024016105df565b73ffffffffffffffffffffffffffffffffffffffff83166107d2576040517f94280d62000000000000000000000000000000000000000000000000000000008152600060048201526024016105df565b73ffffffffffffffffffffffffffffffffffffffff808516600090815260016020908152604080832093871683529290522082905580156105f7578273ffffffffffffffffffffffffffffffffffffffff168473ffffffffffffffffffffffffffffffffffffffff167f8c5be1e5ebec7d5bd14f71427d1e84f3dd0314c0f7b2291e5b200ac8c7c3b9258460405161086c91815260200190565b60405180910390a350505050565b73ffffffffffffffffffffffffffffffffffffffff83166108b25780600260008282546108a79190610c4c565b909155506109649050565b73ffffffffffffffffffffffffffffffffffffffff831660009081526020819052604090205481811015610938576040517fe450d38c00000000000000000000000000000000000000000000000000000000815273ffffffffffffffffffffffffffffffffffffffff8516600482015260248101829052604481018390526064016105df565b73ffffffffffffffffffffffffffffffffffffffff841660009081526020819052604090209082900390555b73ffffffffffffffffffffffffffffffffffffffff821661098d576002805482900390556109b9565b73ffffffffffffffffffffffffffffffffffffffff821660009081526020819052604090208054820190555b8173ffffffffffffffffffffffffffffffffffffffff168373ffffffffffffffffffffffffffffffffffffffff167fddf252ad1be2c89b69c2b068fc378daa952ba7f163c4a11628f55a4df523b3ef83604051610a1891815260200190565b60405180910390a3505050565b60006020808352835180602085015260005b81811015610a5357858101830151858201604001528201610a37565b5060006040828601015260407fffffffffffffffffffffffffffffffffffffffffffffffffffffffffffffffe0601f8301168501019250505092915050565b803573ffffffffffffffffffffffffffffffffffffffff81168114610ab657600080fd5b919050565b60008060408385031215610ace57600080fd5b610ad783610a92565b946020939093013593505050565b600080600060608486031215610afa57600080fd5b610b0384610a92565b9250610b1160208501610a92565b9150604084013590509250925092565b600060208284031215610b3357600080fd5b5035919050565b600060208284031215610b4c57600080fd5b610b5582610a92565b9392505050565b60008060408385031215610b6f57600080fd5b610b7883610a92565b9150610b8660208401610a92565b90509250929050565b600181811c90821680610ba357607f821691505b602082108103610bdc577f4e487b7100000000000000000000000000000000000000000000000000000000600052602260045260246000fd5b50919050565b600060208284031215610bf457600080fd5b5051919050565b600060208284031215610c0d57600080fd5b81518015158114610b5557600080fd5b7f4e487b7100000000000000000000000000000000000000000000000000000000600052601160045260246000fd5b8082018082111561035f5761035f610c1d565b808202811582820484141761035f5761035f610c1d565b600082610cac577f4e487b7100000000000000000000000000000000000000000000000000000000600052601260045260246000fd5b50049056fea164736f6c6343000817000a","linkReferences":{}},"methodIdentifiers":{"allowance(address,address)":"dd62ed3e","approve(address,uint256)":"095ea7b3","approveMax(address)":"571ac8b0","balanceOf(address)":"70a08231","buyTokens(uint256)":"3610724e","decimals()":"313ce567","name()":"06fdde03","symbol()":"95d89b41","tokenPrice()":"7ff9b596","tokensSold()":"518ab2a8","totalSupply()":"18160ddd","transfer(address,uint256)":"a9059cbb","transferFrom(address,address,uint256)":"23b872dd"},"id":26}