{"abi":[{"type":"constructor","inputs":[{"name":"_minContribution","type":"uint256","internalType":"uint256"},{"name":"_maxContribution","type":"uint256","internalType":"uint256"}],"stateMutability":"nonpayable"},{"type":"function","name":"allowance","inputs":[{"name":"owner","type":"address","internalType":"address"},{"name":"spender","type":"address","internalType":"address"}],"outputs":[{"name":"","type":"uint256","internalType":"uint256"}],"stateMutability":"view"},{"type":"function","name":"approve","inputs":[{"name":"spender","type":"address","internalType":"address"},{"name":"value","type":"uint256","internalType":"uint256"}],"outputs":[{"name":"","type":"bool","internalType":"bool"}],"stateMutability":"nonpayable"},{"type":"function","name":"balanceOf","inputs":[{"name":"account","type":"address","internalType":"address"}],"outputs":[{"name":"","type":"uint256","internalType":"uint256"}],"stateMutability":"view"},{"type":"function","name":"buyTokens","inputs":[],"outputs":[],"stateMutability":"payable"},{"type":"function","name":"claimRefund","inputs":[],"outputs":[],"stateMutability":"nonpayable"},{"type":"function","name":"contributions","inputs":[{"name":"","type":"address","internalType":"address"}],"outputs":[{"name":"","type":"uint256","internalType":"uint256"}],"stateMutability":"view"},{"type":"function","name":"decimals","inputs":[],"outputs":[{"name":"","type":"uint8","internalType":"uint8"}],"stateMutability":"view"},{"type":"function","name":"distributeTokens","inputs":[{"name":"to","type":"address","internalType":"address"},{"name":"amount","type":"uint256","internalType":"uint256"}],"outputs":[],"stateMutability":"nonpayable"},{"type":"function","name":"maxContribution","inputs":[],"outputs":[{"name":"","type":"uint256","internalType":"uint256"}],"stateMutability":"view"},{"type":"function","name":"minContribution","inputs":[],"outputs":[{"name":"","type":"uint256","internalType":"uint256"}],"stateMutability":"view"},{"type":"function","name":"name","inputs":[],"outputs":[{"name":"","type":"string","internalType":"string"}],"stateMutability":"view"},{"type":"function","name":"owner","inputs":[],"outputs":[{"name":"","type":"address","internalType":"address payable"}],"stateMutability":"view"},{"type":"function","name":"presaleActive","inputs":[],"outputs":[{"name":"","type":"bool","internalType":"bool"}],"stateMutability":"view"},{"type":"function","name":"presaleEndTime","inputs":[],"outputs":[{"name":"","type":"uint256","internalType":"uint256"}],"stateMutability":"view"},{"type":"function","name":"presaleMaxCap","inputs":[],"outputs":[{"name":"","type":"uint256","internalType":"uint256"}],"stateMutability":"view"},{"type":"function","name":"presaleStartTime","inputs":[],"outputs":[{"name":"","type":"uint256","internalType":"uint256"}],"stateMutability":"view"},{"type":"function","name":"publicSaleActive","inputs":[],"outputs":[{"name":"","type":"bool","internalType":"bool"}],"stateMutability":"view"},{"type":"function","name":"publicSaleEndTime","inputs":[],"outputs":[{"name":"","type":"uint256","internalType":"uint256"}],"stateMutability":"view"},{"type":"function","name":"publicSaleMaxCap","inputs":[],"outputs":[{"name":"","type":"uint256","internalType":"uint256"}],"stateMutability":"view"},{"type":"function","name":"publicSaleStartTime","inputs":[],"outputs":[{"name":"","type":"uint256","internalType":"uint256"}],"stateMutability":"view"},{"type":"function","name":"startPresale","inputs":[{"name":"_maxCap","type":"uint256","internalType":"uint256"},{"name":"_duration","type":"uint256","internalType":"uint256"}],"outputs":[],"stateMutability":"nonpayable"},{"type":"function","name":"startPublicSale","inputs":[{"name":"_maxCap","type":"uint256","internalType":"uint256"},{"name":"_duration","type":"uint256","internalType":"uint256"}],"outputs":[],"stateMutability":"nonpayable"},{"type":"function","name":"symbol","inputs":[],"outputs":[{"name":"","type":"string","internalType":"string"}],"stateMutability":"view"},{"type":"function","name":"totalContributions","inputs":[{"name":"","type":"address","internalType":"address"}],"outputs":[{"name":"","type":"uint256","internalType":"uint256"}],"stateMutability":"view"},{"type":"function","name":"totalRaisedEther","inputs":[],"outputs":[{"name":"","type":"uint256","internalType":"uint256"}],"stateMutability":"view"},{"type":"function","name":"totalSupply","inputs":[],"outputs":[{"name":"","type":"uint256","internalType":"uint256"}],"stateMutability":"view"},{"type":"function","name":"transfer","inputs":[{"name":"to","type":"address","internalType":"address"},{"name":"value","type":"uint256","internalType":"uint256"}],"outputs":[{"name":"","type":"bool","internalType":"bool"}],"stateMutability":"nonpayable"},{"type":"function","name":"transferFrom","inputs":[{"name":"from","type":"address","internalType":"address"},{"name":"to","type":"address","internalType":"address"},{"name":"value","type":"uint256","internalType":"uint256"}],"outputs":[{"name":"","type":"bool","internalType":"bool"}],"stateMutability":"nonpayable"},{"type":"event","name":"Approval","inputs":[{"name":"owner","type":"address","indexed":true,"internalType":"address"},{"name":"spender","type":"address","indexed":true,"internalType":"address"},{"name":"value","type":"uint256","indexed":false,"internalType":"uint256"}],"anonymous":false},{"type":"event","name":"PresaleContribution","inputs":[{"name":"contributor","type":"address","indexed":true,"internalType":"address"},{"name":"amount","type":"uint256","indexed":false,"internalType":"uint256"}],"anonymous":false},{"type":"event","name":"PublicSaleContribution","inputs":[{"name":"contributor","type":"address","indexed":true,"internalType":"address"},{"name":"amount","type":"uint256","indexed":false,"internalType":"uint256"}],"anonymous":false},{"type":"event","name":"RefundIssued","inputs":[{"name":"recipient","type":"address","indexed":true,"internalType":"address"},{"name":"amount","type":"uint256","indexed":false,"internalType":"uint256"}],"anonymous":false},{"type":"event","name":"TokenDistributed","inputs":[{"name":"recipient","type":"address","indexed":true,"internalType":"address"},{"name":"amount","type":"uint256","indexed":false,"internalType":"uint256"}],"anonymous":false},{"type":"event","name":"Transfer","inputs":[{"name":"from","type":"address","indexed":true,"internalType":"address"},{"name":"to","type":"address","indexed":true,"internalType":"address"},{"name":"value","type":"uint256","indexed":false,"internalType":"uint256"}],"anonymous":false},{"type":"error","name":"ERC20InsufficientAllowance","inputs":[{"name":"spender","type":"address","internalType":"address"},{"name":"allowance","type":"uint256","internalType":"uint256"},{"name":"needed","type":"uint256","internalType":"uint256"}]},{"type":"error","name":"ERC20InsufficientBalance","inputs":[{"name":"sender","type":"address","internalType":"address"},{"name":"balance","type":"uint256","internalType":"uint256"},{"name":"needed","type":"uint256","internalType":"uint256"}]},{"type":"error","name":"ERC20InvalidApprover","inputs":[{"name":"approver","type":"address","internalType":"address"}]},{"type":"error","name":"ERC20InvalidReceiver","inputs":[{"name":"receiver","type":"address","internalType":"address"}]},{"type":"error","name":"ERC20InvalidSender","inputs":[{"name":"sender","type":"address","internalType":"address"}]},{"type":"error","name":"ERC20InvalidSpender","inputs":[{"name":"spender","type":"address","internalType":"address"}]}],"bytecode":{"object":"0x60a06040523480156200001157600080fd5b506040516200192e3803806200192e8339810160408190526200003491620000cd565b6040518060400160405280600781526020016626bcaa37b5b2b760c91b81525060405180604001604052806002815260200161135560f21b815250816003908162000080919062000199565b5060046200008f828262000199565b50503360805250620000aa82670de0b6b3a764000062000265565b600755620000c181670de0b6b3a764000062000265565b60085550620002919050565b60008060408385031215620000e157600080fd5b505080516020909101519092909150565b634e487b7160e01b600052604160045260246000fd5b600181811c908216806200011d57607f821691505b6020821081036200013e57634e487b7160e01b600052602260045260246000fd5b50919050565b601f82111562000194576000816000526020600020601f850160051c810160208610156200016f5750805b601f850160051c820191505b8181101562000190578281556001016200017b565b5050505b505050565b81516001600160401b03811115620001b557620001b5620000f2565b620001cd81620001c6845462000108565b8462000144565b602080601f831160018114620002055760008415620001ec5750858301515b600019600386901b1c1916600185901b17855562000190565b600085815260208120601f198616915b82811015620002365788860151825594840194600190910190840162000215565b5085821015620002555787850151600019600388901b60f8161c191681555b5050505050600190811b01905550565b80820281158282048414176200028b57634e487b7160e01b600052601160045260246000fd5b92915050565b60805161166c620002c26000396000818161040f01528181610636015281816107cb0152610978015261166c6000f3fe6080604052600436106101b75760003560e01c80637c4ecead116100ec578063a9059cbb1161008a578063bc8893b411610064578063bc8893b4146104e2578063d0febe4c14610501578063d201ab5914610509578063dd62ed3e1461051f57600080fd5b8063a9059cbb14610497578063aaffadf3146104b7578063b5545a3c146104cd57600080fd5b80638da5cb5b116100c65780638da5cb5b146103fd57806395d89b4114610456578063a2b5940b1461046b578063a82524b21461048157600080fd5b80637c4ecead1461039a5780637ed3deba146103ba5780638d3d6576146103e757600080fd5b8063249b7c191161015957806342e94c901161013357806342e94c90146102fa57806353135ca0146103275780636bb7b1d91461034157806370a082311461035757600080fd5b8063249b7c19146102a8578063313ce567146102be5780633a12e933146102da57600080fd5b8063158a498811610195578063158a49881461023b57806318160ddd1461025d5780631e4d185f1461027257806323b872dd1461028857600080fd5b806306fdde03146101bc578063095ea7b3146101e75780630a7e729714610217575b600080fd5b3480156101c857600080fd5b506101d1610572565b6040516101de9190611440565b60405180910390f35b3480156101f357600080fd5b506102076102023660046114d6565b610604565b60405190151581526020016101de565b34801561022357600080fd5b5061022d600f5481565b6040519081526020016101de565b34801561024757600080fd5b5061025b6102563660046114d6565b61061e565b005b34801561026957600080fd5b5060025461022d565b34801561027e57600080fd5b5061022d600c5481565b34801561029457600080fd5b506102076102a3366004611500565b61078f565b3480156102b457600080fd5b5061022d600a5481565b3480156102ca57600080fd5b50604051601281526020016101de565b3480156102e657600080fd5b5061025b6102f536600461153c565b6107b3565b34801561030657600080fd5b5061022d61031536600461155e565b600d6020526000908152604090205481565b34801561033357600080fd5b506010546102079060ff1681565b34801561034d57600080fd5b5061022d600b5481565b34801561036357600080fd5b5061022d61037236600461155e565b73ffffffffffffffffffffffffffffffffffffffff1660009081526020819052604090205490565b3480156103a657600080fd5b5061025b6103b536600461153c565b610960565b3480156103c657600080fd5b5061022d6103d536600461155e565b600e6020526000908152604090205481565b3480156103f357600080fd5b5061022d60085481565b34801561040957600080fd5b506104317f000000000000000000000000000000000000000000000000000000000000000081565b60405173ffffffffffffffffffffffffffffffffffffffff90911681526020016101de565b34801561046257600080fd5b506101d1610ab6565b34801561047757600080fd5b5061022d60055481565b34801561048d57600080fd5b5061022d60095481565b3480156104a357600080fd5b506102076104b23660046114d6565b610ac5565b3480156104c357600080fd5b5061022d60075481565b3480156104d957600080fd5b5061025b610ad3565b3480156104ee57600080fd5b5060105461020790610100900460ff1681565b61025b610c74565b34801561051557600080fd5b5061022d60065481565b34801561052b57600080fd5b5061022d61053a366004611580565b73ffffffffffffffffffffffffffffffffffffffff918216600090815260016020908152604080832093909416825291909152205490565b606060038054610581906115b3565b80601f01602080910402602001604051908101604052809291908181526020018280546105ad906115b3565b80156105fa5780601f106105cf576101008083540402835291602001916105fa565b820191906000526020600020905b8154815290600101906020018083116105dd57829003601f168201915b5050505050905090565b600033610612818585610edd565b60019150505b92915050565b3373ffffffffffffffffffffffffffffffffffffffff7f000000000000000000000000000000000000000000000000000000000000000016146106ce5760405162461bcd60e51b815260206004820152602160248201527f4f6e6c79206f776e65722063616e2063616c6c20746869732066756e6374696f60448201527f6e0000000000000000000000000000000000000000000000000000000000000060648201526084015b60405180910390fd5b73ffffffffffffffffffffffffffffffffffffffff82166107315760405162461bcd60e51b815260206004820152600f60248201527f496e76616c69642061646472657373000000000000000000000000000000000060448201526064016106c5565b61073b8282610eea565b8173ffffffffffffffffffffffffffffffffffffffff167ff6f55ada4fbb9e2bc6813f97e749a30067f3c13a200ce783269b50e6419e8f648260405161078391815260200190565b60405180910390a25050565b60003361079d858285610f4a565b6107a8858585611019565b506001949350505050565b3373ffffffffffffffffffffffffffffffffffffffff7f0000000000000000000000000000000000000000000000000000000000000000161461085e5760405162461bcd60e51b815260206004820152602160248201527f4f6e6c79206f776e65722063616e2063616c6c20746869732066756e6374696f60448201527f6e0000000000000000000000000000000000000000000000000000000000000060648201526084016106c5565b601054610100900460ff16156108b65760405162461bcd60e51b815260206004820152601d60248201527f5075626c69632073616c6520697320616c72656164792061637469766500000060448201526064016106c5565b42600a54106109075760405162461bcd60e51b815260206004820152601960248201527f50726573616c6520686173206e6f7420656e646564207965740000000000000060448201526064016106c5565b61091982670de0b6b3a7640000611635565b60065542600b81905561092d90829061164c565b600c555050601080547fffffffffffffffffffffffffffffffffffffffffffffffffffffffffffff00ff16610100179055565b3373ffffffffffffffffffffffffffffffffffffffff7f00000000000000000000000000000000000000000000000000000000000000001614610a0b5760405162461bcd60e51b815260206004820152602160248201527f4f6e6c79206f776e65722063616e2063616c6c20746869732066756e6374696f60448201527f6e0000000000000000000000000000000000000000000000000000000000000060648201526084016106c5565b60105460ff1615610a5e5760405162461bcd60e51b815260206004820152601960248201527f50726573616c6520697320616c7265616479206163746976650000000000000060448201526064016106c5565b610a7082670de0b6b3a7640000611635565b600555426009819055610a8490829061164c565b600a555050601080547fffffffffffffffffffffffffffffffffffffffffffffffffffffffffffffff00166001179055565b606060048054610581906115b3565b600033610612818585611019565b610adb6110c4565b60105460ff16158015610af65750601054610100900460ff16155b610b425760405162461bcd60e51b815260206004820152601460248201527f53616c65206973207374696c6c2061637469766500000000000000000000000060448201526064016106c5565b600554600f541080610b575750600654600f54105b610ba35760405162461bcd60e51b815260206004820152601f60248201527f4d696e696d756d2063617020726561636865642c206e6f20726566756e64730060448201526064016106c5565b336000908152600d602052604090205480610c005760405162461bcd60e51b815260206004820152601a60248201527f4e6f20636f6e747269627574696f6e7320746f20726566756e6400000000000060448201526064016106c5565b336000818152600d60205260408082208290555183156108fc0291849190818181858888f19350505050158015610c3b573d6000803e3d6000fd5b5060405181815233907fa171b6942063c6f2800ce40a780edce37baa2b618571b11eedd1e69e626e7d769060200160405180910390a250565b60105460ff168015610c875750600a5442105b80610ca55750601054610100900460ff168015610ca55750600c5442105b610cf15760405162461bcd60e51b815260206004820152601260248201527f53616c65206973206e6f7420616374697665000000000000000000000000000060448201526064016106c5565b336000908152600e6020526040812054610d0c90349061164c565b90506007548110158015610d2257506008548111155b610d945760405162461bcd60e51b815260206004820152602960248201527f436f6e747269627574696f6e206e6f742077697468696e20696e64697669647560448201527f616c206c696d697473000000000000000000000000000000000000000000000060648201526084016106c5565b600034600f54610da4919061164c565b60105490915060ff16610db957600654610dbd565b6005545b811115610e0c5760405162461bcd60e51b815260206004820152600c60248201527f436170206578636565646564000000000000000000000000000000000000000060448201526064016106c5565b6000610e1934600a611635565b9050610e253382610eea565b336000908152600d602052604081208054349290610e4490849061164c565b9091555050336000908152600e60205260409020839055600f82905560105460ff1615610ea65760405134815233907f3d0ab7e8209f975ae8d4c319005ac3a64cf3b4ee6503d416abb001d442eb1abc906020015b60405180910390a2505050565b60405134815233907f7a053e992f47558911210f974f73a9002f498ff8d5df41b89011c82e15298f8c90602001610e99565b505050565b610ed8838383600161114d565b73ffffffffffffffffffffffffffffffffffffffff8216610f3a576040517fec442f05000000000000000000000000000000000000000000000000000000008152600060048201526024016106c5565b610f4660008383611295565b5050565b73ffffffffffffffffffffffffffffffffffffffff8381166000908152600160209081526040808320938616835292905220547fffffffffffffffffffffffffffffffffffffffffffffffffffffffffffffffff81146110135781811015611004576040517ffb8f41b200000000000000000000000000000000000000000000000000000000815273ffffffffffffffffffffffffffffffffffffffff8416600482015260248101829052604481018390526064016106c5565b6110138484848403600061114d565b50505050565b73ffffffffffffffffffffffffffffffffffffffff8316611069576040517f96c6fd1e000000000000000000000000000000000000000000000000000000008152600060048201526024016106c5565b73ffffffffffffffffffffffffffffffffffffffff82166110b9576040517fec442f05000000000000000000000000000000000000000000000000000000008152600060048201526024016106c5565b610ed8838383611295565b60105460ff1680156110d75750600a5442115b1561110557601080547fffffffffffffffffffffffffffffffffffffffffffffffffffffffffffffff001690555b601054610100900460ff16801561111d5750600c5442115b1561114b57601080547fffffffffffffffffffffffffffffffffffffffffffffffffffffffffffff00ff1690555b565b73ffffffffffffffffffffffffffffffffffffffff841661119d576040517fe602df05000000000000000000000000000000000000000000000000000000008152600060048201526024016106c5565b73ffffffffffffffffffffffffffffffffffffffff83166111ed576040517f94280d62000000000000000000000000000000000000000000000000000000008152600060048201526024016106c5565b73ffffffffffffffffffffffffffffffffffffffff80851660009081526001602090815260408083209387168352929052208290558015611013578273ffffffffffffffffffffffffffffffffffffffff168473ffffffffffffffffffffffffffffffffffffffff167f8c5be1e5ebec7d5bd14f71427d1e84f3dd0314c0f7b2291e5b200ac8c7c3b9258460405161128791815260200190565b60405180910390a350505050565b73ffffffffffffffffffffffffffffffffffffffff83166112cd5780600260008282546112c2919061164c565b9091555061137f9050565b73ffffffffffffffffffffffffffffffffffffffff831660009081526020819052604090205481811015611353576040517fe450d38c00000000000000000000000000000000000000000000000000000000815273ffffffffffffffffffffffffffffffffffffffff8516600482015260248101829052604481018390526064016106c5565b73ffffffffffffffffffffffffffffffffffffffff841660009081526020819052604090209082900390555b73ffffffffffffffffffffffffffffffffffffffff82166113a8576002805482900390556113d4565b73ffffffffffffffffffffffffffffffffffffffff821660009081526020819052604090208054820190555b8173ffffffffffffffffffffffffffffffffffffffff168373ffffffffffffffffffffffffffffffffffffffff167fddf252ad1be2c89b69c2b068fc378daa952ba7f163c4a11628f55a4df523b3ef8360405161143391815260200190565b60405180910390a3505050565b60006020808352835180602085015260005b8181101561146e57858101830151858201604001528201611452565b5060006040828601015260407fffffffffffffffffffffffffffffffffffffffffffffffffffffffffffffffe0601f8301168501019250505092915050565b803573ffffffffffffffffffffffffffffffffffffffff811681146114d157600080fd5b919050565b600080604083850312156114e957600080fd5b6114f2836114ad565b946020939093013593505050565b60008060006060848603121561151557600080fd5b61151e846114ad565b925061152c602085016114ad565b9150604084013590509250925092565b6000806040838503121561154f57600080fd5b50508035926020909101359150565b60006020828403121561157057600080fd5b611579826114ad565b9392505050565b6000806040838503121561159357600080fd5b61159c836114ad565b91506115aa602084016114ad565b90509250929050565b600181811c908216806115c757607f821691505b602082108103611600577f4e487b7100000000000000000000000000000000000000000000000000000000600052602260045260246000fd5b50919050565b7f4e487b7100000000000000000000000000000000000000000000000000000000600052601160045260246000fd5b808202811582820484141761061857610618611606565b808201808211156106185761061861160656fea164736f6c6343000817000a","linkReferences":{}},"methodIdentifiers":{"allowance(address,address)":"dd62ed3e","approve(address,uint256)":"095ea7b3","balanceOf(address)":"70a08231","buyTokens()":"d0febe4c","claimRefund()":"b5545a3c","contributions(address)":"42e94c90","decimals()":"313ce567","distributeTokens(address,uint256)":"158a4988","maxContribution()":"8d3d6576","minContribution()":"aaffadf3","name()":"06fdde03","owner()":"8da5cb5b","presaleActive()":"53135ca0","presaleEndTime()":"249b7c19","presaleMaxCap()":"a2b5940b","presaleStartTime()":"a82524b2","publicSaleActive()":"bc8893b4","publicSaleEndTime()":"1e4d185f","publicSaleMaxCap()":"d201ab59","publicSaleStartTime()":"6bb7b1d9","startPresale(uint256,uint256)":"7c4ecead","startPublicSale(uint256,uint256)":"3a12e933","symbol()":"95d89b41","totalContributions(address)":"7ed3deba","totalRaisedEther()":"0a7e7297","totalSupply()":"18160ddd","transfer(address,uint256)":"a9059cbb","transferFrom(address,address,uint256)":"23b872dd"},"id":26}